{
  "contractName": "Billboard",
  "abi": [
    {
      "constant": true,
      "inputs": [
        {
          "name": "",
          "type": "uint256"
        }
      ],
      "name": "currentCollected",
      "outputs": [
        {
          "name": "",
          "type": "uint256"
        }
      ],
      "payable": false,
      "stateMutability": "view",
      "type": "function"
    },
    {
      "constant": true,
      "inputs": [
        {
          "name": "",
          "type": "uint256"
        }
      ],
      "name": "price",
      "outputs": [
        {
          "name": "",
          "type": "uint256"
        }
      ],
      "payable": false,
      "stateMutability": "view",
      "type": "function"
    },
    {
      "constant": true,
      "inputs": [
        {
          "name": "",
          "type": "address"
        }
      ],
      "name": "patrons",
      "outputs": [
        {
          "name": "",
          "type": "bool"
        }
      ],
      "payable": false,
      "stateMutability": "view",
      "type": "function"
    },
    {
      "constant": true,
      "inputs": [],
      "name": "art",
      "outputs": [
        {
          "name": "",
          "type": "address"
        }
      ],
      "payable": false,
      "stateMutability": "view",
      "type": "function"
    },
    {
      "constant": true,
      "inputs": [
        {
          "name": "",
          "type": "uint256"
        }
      ],
      "name": "state",
      "outputs": [
        {
          "name": "",
          "type": "uint8"
        }
      ],
      "payable": false,
      "stateMutability": "view",
      "type": "function"
    },
    {
      "constant": true,
      "inputs": [],
      "name": "artist",
      "outputs": [
        {
          "name": "",
          "type": "address"
        }
      ],
      "payable": false,
      "stateMutability": "view",
      "type": "function"
    },
    {
      "constant": true,
      "inputs": [],
      "name": "artistFund",
      "outputs": [
        {
          "name": "",
          "type": "uint256"
        }
      ],
      "payable": false,
      "stateMutability": "view",
      "type": "function"
    },
    {
      "constant": true,
      "inputs": [
        {
          "name": "",
          "type": "uint256"
        }
      ],
      "name": "timeAcquired",
      "outputs": [
        {
          "name": "",
          "type": "uint256"
        }
      ],
      "payable": false,
      "stateMutability": "view",
      "type": "function"
    },
    {
      "constant": true,
      "inputs": [
        {
          "name": "",
          "type": "uint256"
        }
      ],
      "name": "timeLastCollected",
      "outputs": [
        {
          "name": "",
          "type": "uint256"
        }
      ],
      "payable": false,
      "stateMutability": "view",
      "type": "function"
    },
    {
      "constant": true,
      "inputs": [
        {
          "name": "",
          "type": "address"
        }
      ],
      "name": "timeHeld",
      "outputs": [
        {
          "name": "",
          "type": "uint256"
        }
      ],
      "payable": false,
      "stateMutability": "view",
      "type": "function"
    },
    {
      "constant": true,
      "inputs": [
        {
          "name": "",
          "type": "uint256"
        }
      ],
      "name": "deposit",
      "outputs": [
        {
          "name": "",
          "type": "uint256"
        }
      ],
      "payable": false,
      "stateMutability": "view",
      "type": "function"
    },
    {
      "inputs": [
        {
          "name": "_artist",
          "type": "address"
        },
        {
          "name": "_artwork",
          "type": "address"
        }
      ],
      "payable": false,
      "stateMutability": "nonpayable",
      "type": "constructor"
    },
    {
      "anonymous": false,
      "inputs": [
        {
          "indexed": true,
          "name": "owner",
          "type": "address"
        },
        {
          "indexed": true,
          "name": "price",
          "type": "uint256"
        }
      ],
      "name": "LogBuy",
      "type": "event"
    },
    {
      "anonymous": false,
      "inputs": [
        {
          "indexed": true,
          "name": "newPrice",
          "type": "uint256"
        }
      ],
      "name": "LogPriceChange",
      "type": "event"
    },
    {
      "anonymous": false,
      "inputs": [
        {
          "indexed": true,
          "name": "prevOwner",
          "type": "address"
        }
      ],
      "name": "Logforcelosure",
      "type": "event"
    },
    {
      "anonymous": false,
      "inputs": [
        {
          "indexed": true,
          "name": "collected",
          "type": "uint256"
        }
      ],
      "name": "LogCollection",
      "type": "event"
    },
    {
      "constant": true,
      "inputs": [
        {
          "name": "id",
          "type": "uint256"
        }
      ],
      "name": "patronageOwed",
      "outputs": [
        {
          "name": "patronageDue",
          "type": "uint256"
        }
      ],
      "payable": false,
      "stateMutability": "view",
      "type": "function"
    },
    {
      "constant": true,
      "inputs": [
        {
          "name": "id",
          "type": "uint256"
        }
      ],
      "name": "patronageOwedWithTimestamp",
      "outputs": [
        {
          "name": "patronageDue",
          "type": "uint256"
        },
        {
          "name": "timestamp",
          "type": "uint256"
        }
      ],
      "payable": false,
      "stateMutability": "view",
      "type": "function"
    },
    {
      "constant": true,
      "inputs": [
        {
          "name": "id",
          "type": "uint256"
        }
      ],
      "name": "forcelosed",
      "outputs": [
        {
          "name": "",
          "type": "bool"
        }
      ],
      "payable": false,
      "stateMutability": "view",
      "type": "function"
    },
    {
      "constant": true,
      "inputs": [
        {
          "name": "id",
          "type": "uint256"
        }
      ],
      "name": "depositAbleToWithdraw",
      "outputs": [
        {
          "name": "",
          "type": "uint256"
        }
      ],
      "payable": false,
      "stateMutability": "view",
      "type": "function"
    },
    {
      "constant": true,
      "inputs": [
        {
          "name": "id",
          "type": "uint256"
        }
      ],
      "name": "forcelosureTime",
      "outputs": [
        {
          "name": "",
          "type": "uint256"
        }
      ],
      "payable": false,
      "stateMutability": "view",
      "type": "function"
    },
    {
      "constant": false,
      "inputs": [
        {
          "name": "id",
          "type": "uint256"
        }
      ],
      "name": "_collectPatronage",
      "outputs": [],
      "payable": false,
      "stateMutability": "nonpayable",
      "type": "function"
    },
    {
      "constant": false,
      "inputs": [
        {
          "name": "id",
          "type": "uint256"
        }
      ],
      "name": "depositWei",
      "outputs": [],
      "payable": true,
      "stateMutability": "payable",
      "type": "function"
    },
    {
      "constant": false,
      "inputs": [
        {
          "name": "amount",
          "type": "uint256"
        }
      ],
      "name": "mint",
      "outputs": [],
      "payable": false,
      "stateMutability": "nonpayable",
      "type": "function"
    },
    {
      "constant": false,
      "inputs": [
        {
          "name": "_newPrice",
          "type": "uint256"
        },
        {
          "name": "id",
          "type": "uint256"
        }
      ],
      "name": "buy",
      "outputs": [],
      "payable": true,
      "stateMutability": "payable",
      "type": "function"
    },
    {
      "constant": false,
      "inputs": [
        {
          "name": "_newPrice",
          "type": "uint256"
        },
        {
          "name": "id",
          "type": "uint256"
        }
      ],
      "name": "changePrice",
      "outputs": [],
      "payable": false,
      "stateMutability": "nonpayable",
      "type": "function"
    },
    {
      "constant": false,
      "inputs": [
        {
          "name": "_wei",
          "type": "uint256"
        },
        {
          "name": "id",
          "type": "uint256"
        }
      ],
      "name": "withdrawDeposit",
      "outputs": [
        {
          "name": "",
          "type": "uint256"
        }
      ],
      "payable": false,
      "stateMutability": "nonpayable",
      "type": "function"
    },
    {
      "constant": false,
      "inputs": [],
      "name": "withdrawArtistFunds",
      "outputs": [],
      "payable": false,
      "stateMutability": "nonpayable",
      "type": "function"
    },
    {
      "constant": false,
      "inputs": [
        {
          "name": "id",
          "type": "uint256"
        }
      ],
      "name": "exit",
      "outputs": [],
      "payable": false,
      "stateMutability": "nonpayable",
      "type": "function"
    }
  ],
  "bytecode": "0x6080604052640ba43b7400600a5564e8d4a51000600b5534801561002257600080fd5b50604051604080620023e58339810180604052604081101561004357600080fd5b810190808051906020019092919080519060200190929190505050806000806101000a81548173ffffffffffffffffffffffffffffffffffffffff021916908373ffffffffffffffffffffffffffffffffffffffff1602179055506000809054906101000a900473ffffffffffffffffffffffffffffffffffffffff1673ffffffffffffffffffffffffffffffffffffffff1663ba0bba406040518163ffffffff167c0100000000000000000000000000000000000000000000000000000000028152600401600060405180830381600087803b15801561012357600080fd5b505af1158015610137573d6000803e3d6000fd5b5050505081600560006101000a81548173ffffffffffffffffffffffffffffffffffffffff021916908373ffffffffffffffffffffffffffffffffffffffff1602179055506000600c60006001815260200190815260200160002060006101000a81548160ff021916908360018111156101ad57fe5b02179055506000600c60006002815260200190815260200160002060006101000a81548160ff021916908360018111156101e357fe5b021790555050506121eb80620001fa6000396000f3fe60806040526004361061013e576000357c0100000000000000000000000000000000000000000000000000000000900463ffffffff1680630995827d146101435780630ee591ba146101925780631b252781146101a957806323ebc82b146101f857806326a49e37146102475780632a9cdd7a146102965780632ef46320146102e5578063301bd28e1461034e5780633e4f49e6146103a557806343bc1612146104025780634bd8aeac146104595780635a540ca8146104845780635b2ace64146104d75780637f8661a1146105265780638cb3c25f146105615780638cb68899146105b75780639fc7a65b14610606578063a0712d681461066b578063a3f81da0146106a6578063b3de019c146106d4578063b6b55f2514610719578063bae04c9a14610768578063d6febde8146107c1578063fb84e7ec146107f9575b600080fd5b34801561014f57600080fd5b5061017c6004803603602081101561016657600080fd5b8101908080359060200190929190505050610834565b6040518082815260200191505060405180910390f35b34801561019e57600080fd5b506101a76108b0565b005b3480156101b557600080fd5b506101e2600480360360208110156101cc57600080fd5b81019080803590602001909291905050506109ea565b6040518082815260200191505060405180910390f35b34801561020457600080fd5b506102316004803603602081101561021b57600080fd5b8101908080359060200190929190505050610a02565b6040518082815260200191505060405180910390f35b34801561025357600080fd5b506102806004803603602081101561026a57600080fd5b8101908080359060200190929190505050610a65565b6040518082815260200191505060405180910390f35b3480156102a257600080fd5b506102cf600480360360208110156102b957600080fd5b8101908080359060200190929190505050610a7d565b6040518082815260200191505060405180910390f35b3480156102f157600080fd5b506103346004803603602081101561030857600080fd5b81019080803573ffffffffffffffffffffffffffffffffffffffff169060200190929190505050610b0f565b604051808215151515815260200191505060405180910390f35b34801561035a57600080fd5b50610363610b2f565b604051808273ffffffffffffffffffffffffffffffffffffffff1673ffffffffffffffffffffffffffffffffffffffff16815260200191505060405180910390f35b3480156103b157600080fd5b506103de600480360360208110156103c857600080fd5b8101908080359060200190929190505050610b54565b604051808260018111156103ee57fe5b60ff16815260200191505060405180910390f35b34801561040e57600080fd5b50610417610b74565b604051808273ffffffffffffffffffffffffffffffffffffffff1673ffffffffffffffffffffffffffffffffffffffff16815260200191505060405180910390f35b34801561046557600080fd5b5061046e610b9a565b6040518082815260200191505060405180910390f35b34801561049057600080fd5b506104bd600480360360208110156104a757600080fd5b8101908080359060200190929190505050610ba0565b604051808215151515815260200191505060405180910390f35b3480156104e357600080fd5b50610510600480360360208110156104fa57600080fd5b8101908080359060200190929190505050610bdf565b6040518082815260200191505060405180910390f35b34801561053257600080fd5b5061055f6004803603602081101561054957600080fd5b8101908080359060200190929190505050610bf7565b005b34801561056d57600080fd5b5061059a6004803603602081101561058457600080fd5b8101908080359060200190929190505050610d8f565b604051808381526020018281526020019250505060405180910390f35b3480156105c357600080fd5b506105f0600480360360208110156105da57600080fd5b8101908080359060200190929190505050610da5565b6040518082815260200191505060405180910390f35b34801561061257600080fd5b506106556004803603602081101561062957600080fd5b81019080803573ffffffffffffffffffffffffffffffffffffffff169060200190929190505050610dbd565b6040518082815260200191505060405180910390f35b34801561067757600080fd5b506106a46004803603602081101561068e57600080fd5b8101908080359060200190929190505050610dd5565b005b6106d2600480360360208110156106bc57600080fd5b810190808035906020019092919050505061107e565b005b3480156106e057600080fd5b50610717600480360360408110156106f757600080fd5b810190808035906020019092919080359060200190929190505050611178565b005b34801561072557600080fd5b506107526004803603602081101561073c57600080fd5b8101908080359060200190929190505050611474565b6040518082815260200191505060405180910390f35b34801561077457600080fd5b506107ab6004803603604081101561078b57600080fd5b81019080803590602001909291908035906020019092919050505061148c565b6040518082815260200191505060405180910390f35b6107f7600480360360408110156107d757600080fd5b810190808035906020019092919080359060200190929190505050611616565b005b34801561080557600080fd5b506108326004803603602081101561081c57600080fd5b81019080803590602001909291905050506119fe565b005b6000806108896301e1338061087b600b5461086d600a54600160008a815260200190815260200160002054611c0290919063ffffffff16565b611c4090919063ffffffff16565b611c4090919063ffffffff16565b90506108a68161089885610a02565b611c4090919063ffffffff16565b4201915050919050565b600560009054906101000a900473ffffffffffffffffffffffffffffffffffffffff1673ffffffffffffffffffffffffffffffffffffffff163373ffffffffffffffffffffffffffffffffffffffff16141515610975576040517f08c379a000000000000000000000000000000000000000000000000000000000815260040180806020018281038252600a8152602001807f4e6f74206172746973740000000000000000000000000000000000000000000081525060200191505060405180910390fd5b600560009054906101000a900473ffffffffffffffffffffffffffffffffffffffff1673ffffffffffffffffffffffffffffffffffffffff166108fc6006549081150290604051600060405180830381858888f193505050501580156109df573d6000803e3d6000fd5b506000600681905550565b60036020528060005260406000206000915090505481565b600080610a0e83610a7d565b9050600260008481526020019081526020016000205481101515610a36576000915050610a60565b610a5c816002600086815260200190815260200160002054611c6a90919063ffffffff16565b9150505b919050565b60016020528060005260406000206000915090505481565b6000610b086301e13380610afa600b54610aec600a54610ade610abc600460008b81526020019081526020016000205442611c6a90919063ffffffff16565b600160008b815260200190815260200160002054611c0290919063ffffffff16565b611c0290919063ffffffff16565b611c4090919063ffffffff16565b611c4090919063ffffffff16565b9050919050565b60076020528060005260406000206000915054906101000a900460ff1681565b6000809054906101000a900473ffffffffffffffffffffffffffffffffffffffff1681565b600c6020528060005260406000206000915054906101000a900460ff1681565b600560009054906101000a900473ffffffffffffffffffffffffffffffffffffffff1681565b60065481565b600080610bac83610a7d565b9050600260008481526020019081526020016000205481101515610bd4576001915050610bda565b60009150505b919050565b60096020528060005260406000206000915090505481565b806000809054906101000a900473ffffffffffffffffffffffffffffffffffffffff1673ffffffffffffffffffffffffffffffffffffffff16636352211e826040518263ffffffff167c01000000000000000000000000000000000000000000000000000000000281526004018082815260200191505060206040518083038186803b158015610c8657600080fd5b505afa158015610c9a573d6000803e3d6000fd5b505050506040513d6020811015610cb057600080fd5b810190808051906020019092919050505073ffffffffffffffffffffffffffffffffffffffff163373ffffffffffffffffffffffffffffffffffffffff16141515610d63576040517f08c379a000000000000000000000000000000000000000000000000000000000815260040180806020018281038252600a8152602001807f4e6f7420706174726f6e0000000000000000000000000000000000000000000081525060200191505060405180910390fd5b81610d6d816119fe565b610d8a600260008581526020019081526020016000205484611c8c565b505050565b600080610d9b83610a7d565b4291509150915091565b60046020528060005260406000206000915090505481565b60086020528060005260406000206000915090505481565b600560009054906101000a900473ffffffffffffffffffffffffffffffffffffffff1673ffffffffffffffffffffffffffffffffffffffff163373ffffffffffffffffffffffffffffffffffffffff16141515610e9a576040517f08c379a000000000000000000000000000000000000000000000000000000000815260040180806020018281038252601b8152602001807f6f6e6c79206172746973742063616e2061646420617274776f726b000000000081525060200191505060405180910390fd5b6000809054906101000a900473ffffffffffffffffffffffffffffffffffffffff1673ffffffffffffffffffffffffffffffffffffffff1663a0712d68826040518263ffffffff167c010000000000000000000000000000000000000000000000000000000002815260040180828152602001915050600060405180830381600087803b158015610f2a57600080fd5b505af1158015610f3e573d6000803e3d6000fd5b50505050600061101560016000809054906101000a900473ffffffffffffffffffffffffffffffffffffffff1673ffffffffffffffffffffffffffffffffffffffff166318160ddd6040518163ffffffff167c010000000000000000000000000000000000000000000000000000000002815260040160206040518083038186803b158015610fcc57600080fd5b505afa158015610fe0573d6000803e3d6000fd5b505050506040513d6020811015610ff657600080fd5b8101908080519060200190929190505050611dc590919063ffffffff16565b905060008090505b82811015611079576000600c600061103e8486611dc590919063ffffffff16565b815260200190815260200160002060006101000a81548160ff0219169083600181111561106757fe5b0217905550808060010191505061101d565b505050565b80611088816119fe565b6000600181111561109557fe5b600c600084815260200190815260200160002060009054906101000a900460ff1660018111156110c157fe5b14151515611137576040517f08c379a000000000000000000000000000000000000000000000000000000000815260040180806020018281038252600a8152602001807f666f7263656c6f7365640000000000000000000000000000000000000000000081525060200191505060405180910390fd5b61115d346002600085815260200190815260200160002054611dc590919063ffffffff16565b60026000848152602001908152602001600020819055505050565b806000809054906101000a900473ffffffffffffffffffffffffffffffffffffffff1673ffffffffffffffffffffffffffffffffffffffff16636352211e826040518263ffffffff167c01000000000000000000000000000000000000000000000000000000000281526004018082815260200191505060206040518083038186803b15801561120757600080fd5b505afa15801561121b573d6000803e3d6000fd5b505050506040513d602081101561123157600080fd5b810190808051906020019092919050505073ffffffffffffffffffffffffffffffffffffffff163373ffffffffffffffffffffffffffffffffffffffff161415156112e4576040517f08c379a000000000000000000000000000000000000000000000000000000000815260040180806020018281038252600a8152602001807f4e6f7420706174726f6e0000000000000000000000000000000000000000000081525060200191505060405180910390fd5b816112ee816119fe565b600060018111156112fb57fe5b600c600085815260200190815260200160002060009054906101000a900460ff16600181111561132757fe5b1415151561139d576040517f08c379a000000000000000000000000000000000000000000000000000000000815260040180806020018281038252600a8152602001807f666f7263656c6f7365640000000000000000000000000000000000000000000081525060200191505060405180910390fd5b60008414151515611416576040517f08c379a000000000000000000000000000000000000000000000000000000000815260040180806020018281038252600f8152602001807f496e636f7272656374205072696365000000000000000000000000000000000081525060200191505060405180910390fd5b83600160008581526020019081526020016000208190555060016000848152602001908152602001600020547f854d6511a28585103049c7770618450f7c9aeb580c69db2913d63869663f475160405160405180910390a250505050565b60026020528060005260406000206000915090505481565b6000816000809054906101000a900473ffffffffffffffffffffffffffffffffffffffff1673ffffffffffffffffffffffffffffffffffffffff16636352211e826040518263ffffffff167c01000000000000000000000000000000000000000000000000000000000281526004018082815260200191505060206040518083038186803b15801561151d57600080fd5b505afa158015611531573d6000803e3d6000fd5b505050506040513d602081101561154757600080fd5b810190808051906020019092919050505073ffffffffffffffffffffffffffffffffffffffff163373ffffffffffffffffffffffffffffffffffffffff161415156115fa576040517f08c379a000000000000000000000000000000000000000000000000000000000815260040180806020018281038252600a8152602001807f4e6f7420706174726f6e0000000000000000000000000000000000000000000081525060200191505060405180910390fd5b82611604816119fe565b61160e8585611c8c565b505092915050565b80611620816119fe565b600083111515611698576040517f08c379a000000000000000000000000000000000000000000000000000000000815260040180806020018281038252600d8152602001807f5072696365206973207a65726f0000000000000000000000000000000000000081525060200191505060405180910390fd5b600160008381526020019081526020016000205434111515611722576040517f08c379a000000000000000000000000000000000000000000000000000000000815260040180806020018281038252600a8152602001807f4e6f7420656e6f7567680000000000000000000000000000000000000000000081525060200191505060405180910390fd5b60008060009054906101000a900473ffffffffffffffffffffffffffffffffffffffff1673ffffffffffffffffffffffffffffffffffffffff16636352211e846040518263ffffffff167c01000000000000000000000000000000000000000000000000000000000281526004018082815260200191505060206040518083038186803b1580156117b257600080fd5b505afa1580156117c6573d6000803e3d6000fd5b505050506040513d60208110156117dc57600080fd5b810190808051906020019092919050505090506001808111156117fb57fe5b600c600085815260200190815260200160002060009054906101000a900460ff16600181111561182757fe5b14156118dd5760006001600085815260200190815260200160002054905060006002600086815260200190815260200160002054111561188a57611887600260008681526020019081526020016000205482611dc590919063ffffffff16565b90505b60008290508073ffffffffffffffffffffffffffffffffffffffff166108fc839081150290604051600060405180830381858888f193505050501580156118d5573d6000803e3d6000fd5b50505061196b565b600060018111156118ea57fe5b600c600085815260200190815260200160002060009054906101000a900460ff16600181111561191657fe5b141561196a576001600c600085815260200190815260200160002060006101000a81548160ff0219169083600181111561194c57fe5b02179055504260046000858152602001908152602001600020819055505b5b611991600160008581526020019081526020016000205434611c6a90919063ffffffff16565b60026000858152602001908152602001600020819055506119b481338686611de6565b833373ffffffffffffffffffffffffffffffffffffffff167f4f79409f494e81c38036d80aa8a6507c2cb08d90bfb2fead5519447646b3497e60405160405180910390a350505050565b600180811115611a0a57fe5b600c600083815260200190815260200160002060009054906101000a900460ff166001811115611a3657fe5b1415611bff576000611a4782610a7d565b9050600260008381526020019081526020016000205481101515611b2257611ae7611ac582611ab76002600087815260200190815260200160002054611aa9600460008981526020019081526020016000205442611c6a90919063ffffffff16565b611c0290919063ffffffff16565b611c4090919063ffffffff16565b6004600085815260200190815260200160002054611dc590919063ffffffff16565b600460008481526020019081526020016000208190555060026000838152602001908152602001600020549050611b1d82612051565b611b78565b426004600084815260200190815260200160002081905550611b60816003600085815260200190815260200160002054611dc590919063ffffffff16565b60036000848152602001908152602001600020819055505b611b9e816002600085815260200190815260200160002054611c6a90919063ffffffff16565b6002600084815260200190815260200160002081905550611bca81600654611dc590919063ffffffff16565b600681905550807f54acb82a9e70d7c289b149758d23167c915428ae854a7aa4abe5bf2f4ef29f3660405160405180910390a2505b50565b600080831415611c155760009050611c3a565b60008284029050828482811515611c2857fe5b04141515611c3557600080fd5b809150505b92915050565b60008082111515611c5057600080fd5b60008284811515611c5d57fe5b0490508091505092915050565b6000828211151515611c7b57600080fd5b600082840390508091505092915050565b81600260008381526020019081526020016000205410151515611d17576040517f08c379a00000000000000000000000000000000000000000000000000000000081526004018080602001828103825260148152602001807f5769746864726177696e6720746f6f206d75636800000000000000000000000081525060200191505060405180910390fd5b611d3d826002600084815260200190815260200160002054611c6a90919063ffffffff16565b60026000838152602001908152602001600020819055503373ffffffffffffffffffffffffffffffffffffffff166108fc839081150290604051600060405180830381858888f19350505050158015611d9a573d6000803e3d6000fd5b50600060026000838152602001908152602001600020541415611dc157611dc081612051565b5b5050565b6000808284019050838110151515611ddc57600080fd5b8091505092915050565b611e70611e2260096000848152602001908152602001600020546004600085815260200190815260200160002054611c6a90919063ffffffff16565b600860008773ffffffffffffffffffffffffffffffffffffffff1673ffffffffffffffffffffffffffffffffffffffff16815260200190815260200160002054611dc590919063ffffffff16565b600860008673ffffffffffffffffffffffffffffffffffffffff1673ffffffffffffffffffffffffffffffffffffffff168152602001908152602001600020819055506000809054906101000a900473ffffffffffffffffffffffffffffffffffffffff1673ffffffffffffffffffffffffffffffffffffffff166323b872dd8585846040518463ffffffff167c0100000000000000000000000000000000000000000000000000000000028152600401808473ffffffffffffffffffffffffffffffffffffffff1673ffffffffffffffffffffffffffffffffffffffff1681526020018373ffffffffffffffffffffffffffffffffffffffff1673ffffffffffffffffffffffffffffffffffffffff1681526020018281526020019350505050600060405180830381600087803b158015611fab57600080fd5b505af1158015611fbf573d6000803e3d6000fd5b505050508160016000838152602001908152602001600020819055504260096000838152602001908152602001600020819055506001600760008573ffffffffffffffffffffffffffffffffffffffff1673ffffffffffffffffffffffffffffffffffffffff16815260200190815260200160002060006101000a81548160ff02191690831515021790555050505050565b60008060009054906101000a900473ffffffffffffffffffffffffffffffffffffffff1673ffffffffffffffffffffffffffffffffffffffff16636352211e836040518263ffffffff167c01000000000000000000000000000000000000000000000000000000000281526004018082815260200191505060206040518083038186803b1580156120e157600080fd5b505afa1580156120f5573d6000803e3d6000fd5b505050506040513d602081101561210b57600080fd5b8101908080519060200190929190505050905061212b8130600085611de6565b6000600c600084815260200190815260200160002060006101000a81548160ff0219169083600181111561215b57fe5b0217905550600060036000848152602001908152602001600020819055508073ffffffffffffffffffffffffffffffffffffffff167e17770e9e32b0e1f96fee109adfcf03db37e09338b2b3e554cbb4cc6f80fbe660405160405180910390a2505056fea165627a7a723058205c906a4dacfcf2da1ca087faa8db1d1c5608e271ef4eb55171e6861310bd63230029",
  "source": "pragma solidity ^0.5.0;\nimport \"./interfaces/IERC721Full.sol\";\nimport \"./utils/SafeMath.sol\";\n\ncontract Billboard {\n    \n    /*\n    This smart contract collects patronage from current owner through a Harberger tax model and \n    takes stewardship of the artwork if the patron can't pay anymore.\n    \n    Harberger Tax (COST): \n    - Artwork is always on sale.\n    - You have to have a price set.\n    - Tax (Patronage) is paid to maintain ownership.\n    - Steward maints control over ERC721.\n    */\n    using SafeMath for uint256;\n    IERC721Full public art; // ERC721 NFT.\n\n    mapping (uint256 => uint256) public price; //in wei\n    mapping (uint256 => uint256) public deposit;    \n    mapping (uint256 => uint256) public currentCollected; // amount currently collected for patron  \n    mapping (uint256 => uint256) public timeLastCollected; // \n\n\n    address payable public artist;\n    uint256 public artistFund;\n    \n    mapping (address => bool) public patrons;\n    mapping (address => uint256) public timeHeld;\n    mapping (uint256 => uint256) public timeAcquired;\n    \n    // 5% patronage\n    uint256 patronageNumerator = 50000000000;\n    uint256 patronageDenominator = 1000000000000;\n\n    enum StewardState { forcelosed, Owned }\n    mapping (uint256 => StewardState) public state;\n\n    constructor(address payable _artist, address _artwork) public {\n        art = IERC721Full(_artwork);\n        art.setup();\n        artist = _artist;\n        state[1] = StewardState.forcelosed;\n        state[2] = StewardState.forcelosed;\n    } \n\n    event LogBuy(address indexed owner, uint256 indexed price);\n    event LogPriceChange(uint256 indexed newPrice);\n    event Logforcelosure(address indexed prevOwner);\n    event LogCollection(uint256 indexed collected);\n    \n    modifier onlyPatron(uint256 id) {\n        require(msg.sender == art.ownerOf(id), \"Not patron\");\n        _;\n    }\n\n    modifier collectPatronage(uint256 id) {\n       _collectPatronage(id); \n       _;\n    }\n\n    /* public view functions */\n    function patronageOwed(uint256 id) public view returns (uint256 patronageDue) {\n        return price[id].mul(now.sub(timeLastCollected[id])).mul(patronageNumerator)\n            .div(patronageDenominator).div(365 days);\n    }\n\n    function patronageOwedWithTimestamp(uint256 id) public view returns (uint256 patronageDue, uint256 timestamp) {\n        return (patronageOwed(id), now);\n    }\n\n    function forcelosed(uint256 id) public view returns (bool) {\n        // returns whether it is in forcelosed state or not\n        // depending on whether deposit covers patronage due\n        // useful helper function when price should be zero, but contract doesn't reflect it yet.\n        uint256 collection = patronageOwed(id);\n        if(collection >= deposit[id]) {\n            return true;\n        } else {\n            return false;\n        }\n    }\n\n    // same function as above, basically\n    function depositAbleToWithdraw(uint256 id) public view returns (uint256) {\n        uint256 collection = patronageOwed(id);\n        if(collection >= deposit[id]) {\n            return 0;\n        } else {\n            return deposit[id].sub(collection);\n        }\n    }\n\n    /*\n    now + deposit/patronage per second \n    now + depositAbleToWithdraw/(price*nume/denom/365).\n    */\n    function forcelosureTime(uint256 id) public view returns (uint256) {\n        // patronage per second\n        uint256 pps = price[id].mul(patronageNumerator).div(patronageDenominator).div(365 days);\n        return now + depositAbleToWithdraw(id).div(pps); // zero division if price is zero.\n    }\n\n    /* actions */\n    function _collectPatronage(uint256 id) public {\n        // determine patronage to pay\n        if (state[id] == StewardState.Owned) {\n            uint256 collection = patronageOwed(id);\n            \n            // should forcelose and stake stewardship\n            if (collection >= deposit[id]) {\n                // up to when was it actually paid for?\n                timeLastCollected[id] = timeLastCollected[id].add(((now.sub(timeLastCollected[id])).mul(deposit[id]).div(collection)));\n                collection = deposit[id]; // take what's left.\n                _forcelose(id);\n            } else  {\n                // just a normal collection\n                timeLastCollected[id] = now;\n                currentCollected[id] = currentCollected[id].add(collection);\n            }\n            \n            deposit[id] = deposit[id].sub(collection);\n            artistFund = artistFund.add(collection);\n            emit LogCollection(collection);\n        }\n    }\n    \n    // note: anyone can deposit\n    function depositWei(uint256 id) public payable collectPatronage(id) {\n        require(state[id] != StewardState.forcelosed, \"forcelosed\");\n        deposit[id] = deposit[id].add(msg.value);\n    }\n\n    function mint(uint256 amount) public {\n        require(msg.sender == artist, \"only artist can add artwork\");\n        art.mint(amount);\n\n        uint256 index = art.totalSupply().add(1);\n        for (uint256 i = 0; i < amount; i++) {\n            state[index.add(i)] = StewardState.forcelosed;\n        }\n    }\n\n    function buy(uint256 _newPrice, uint256 id) public payable collectPatronage(id) {\n        require(_newPrice > 0, \"Price is zero\");\n        require(msg.value > price[id], \"Not enough\"); // >, coz need to have at least something for deposit\n        address currentOwner = art.ownerOf(id);\n\n        if (state[id] == StewardState.Owned) {\n            uint256 totalToPayBack = price[id];\n            if(deposit[id] > 0) {\n                totalToPayBack = totalToPayBack.add(deposit[id]);\n            }  \n    \n            // pay previous owner their price + deposit back.\n            address payable payableCurrentOwner = address(uint160(currentOwner));\n            payableCurrentOwner.transfer(totalToPayBack);\n        } else if(state[id] == StewardState.forcelosed) {\n            state[id] = StewardState.Owned;\n            timeLastCollected[id] = now;\n        }\n        \n        deposit[id] = msg.value.sub(price[id]);\n        transferArtworkTo(currentOwner, msg.sender, _newPrice, id);\n        emit LogBuy(msg.sender, _newPrice);\n    }\n\n    function changePrice(uint256 _newPrice, uint256 id) public onlyPatron(id) collectPatronage(id) {\n        require(state[id] != StewardState.forcelosed, \"forcelosed\");\n        require(_newPrice != 0, \"Incorrect Price\");\n        \n        price[id] = _newPrice;\n        emit LogPriceChange(price[id]);\n    }\n    \n    function withdrawDeposit(uint256 _wei, uint256 id) public onlyPatron(id) collectPatronage(id) returns (uint256) {\n        _withdrawDeposit(_wei, id);\n    }\n\n    function withdrawArtistFunds() public {\n        require(msg.sender == artist, \"Not artist\");\n        artist.transfer(artistFund);\n        artistFund = 0;\n    }\n\n    function exit(uint256 id) public onlyPatron(id) collectPatronage(id) {\n        _withdrawDeposit(deposit[id], id);\n    }\n\n    /* internal */\n\n    function _withdrawDeposit(uint256 _wei, uint256 id) internal {\n        // note: can withdraw whole deposit, which puts it in immediate to be forcelosed state.\n        require(deposit[id] >= _wei, 'Withdrawing too much');\n\n        deposit[id] = deposit[id].sub(_wei);\n        msg.sender.transfer(_wei); // msg.sender == patron\n\n        if(deposit[id] == 0) {\n            _forcelose(id);\n        }\n    }\n\n    function _forcelose(uint256 id) internal {\n        // become steward of artwork (aka forcelose)\n        address currentOwner = art.ownerOf(id);\n        transferArtworkTo(currentOwner, address(this), 0, id);\n        state[id] = StewardState.forcelosed;\n        currentCollected[id] = 0;\n\n        emit Logforcelosure(currentOwner);\n    }\n\n    function transferArtworkTo(address _currentOwner, address _newOwner, uint256 _newPrice, uint256 id) internal {\n        // note: it would also tabulate time held in stewardship by smart contract\n        timeHeld[_currentOwner] = timeHeld[_currentOwner].add((timeLastCollected[id].sub(timeAcquired[id])));\n        \n        art.transferFrom(_currentOwner, _newOwner, id);\n\n        price[id] = _newPrice;\n        timeAcquired[id] = now;\n        patrons[_newOwner] = true;\n    }\n}",
  "sourcePath": "/Users/minakokojima/Documents/GitHub/QVToolkit2/contracts/Ethereum/contracts/Billboard.sol",
  "compiler": {
    "name": "solc",
    "version": "0.5.0+commit.1d4f565a.Emscripten.clang"
  },
  "schemaVersion": "3.0.9",
  "updatedAt": "2019-09-27T20:02:08.896Z",
  "devdoc": {
    "methods": {}
  },
  "userdoc": {
    "methods": {}
  }
}